:020000040000fa
:080000000002040000000000f2
:020000040000fa
:10040000cfcc20000e7f22000e01880000000000eb
:100410000c00070040b52300010020000f0007007a
:10042000000020000000e000020032000000020096
:100430000000000034410200000000000040da002b
:100440000000fe00600e20000000e000020032000c
:10045000002020009001880000000600a102880012
:10046000800078000000eb001a003700e2804000b6
:1004700054a0b4009101ba00e280400054a0b4003e
:100480009102ba00e280400054a0b4000002eb00e8
:10049000472bde00f507b200a6018800602ce100c2
:1004a00008003a000049eb000201e80002003900b0
:1004b0003420ec0002f0a0008301e900f9ff3e00c7
:1004c000040037006128e100010032000082eb00e7
:1004d000040007001101ba000200e000e3ff3a0047
:1004e0000000060004d0a300e20f49001c00390000
:1004f000810278003549ba000201e80002003900a3
:100500003420ec0002f0a0008301e9000f0032006b
:100510002549ba000201e800020039003420ec004d
:1005200002f0a0008301e900080032000400e000ae
:100530000600320015c9ba000201e80002003900c5
:100540003420ec0002f0a0008301e9008180e80083
:1005500054a0b4000300e000e2ff3a0000000600ef
:100560009102ba00055978008301e900f7ff3200d3
:10057000c82ade00055978008301e900f3ff320044
:100580000400e000f1ff320011d9ba00eeff37009d
:10059000000000000000000000000000000000005b
:1005a000000000000000000000000000000000004b
:1005b000000000000000000000000000000000003b
:1005c000000000000000000000000000000000002b
:1005d000000000000000000000000000000000001b
:1005e000000000000000000000000000000000000b
:1005f00000000000000000000000000000000000fb
:1006000000000000000000000000000000000000ea
:1006100000000000000000000000000000000000da
:1006200000000000000000000000000000000000ca
:100630000040da000000fe0095a0a90041e3a900f7
:1006400085a0a900000006004023a90000000600c4
:100650000080fb0000004000013020006080780036
:1006600000000600401a8800000006008680a900ed
:10067000e7416000e10a20009140780082cfb3009a
:1006800082c0600083c070008000fd00aee0b70053
:100690008000fd00700160004411de000241410055
:1006a00021082000914078000114a10082c0700050
:1006b0008000fd0082e0b7008000fd00680060005f
:1006c0004300de004400dd00610920009140780015
:1006d0000144a10080c070000100780096e0b700de
:1006e0000000060087a0a900e7416000c419dd00f2
:1006f000210b200091407800f2c8b30082c0600056
:1007000083c070008000fd00b2e0b7008000fd00f3
:10071000700160004411de004211dd00210820005c
:10072000914078000124a10082c070008000fd008b
:1007300082e0b7008000fd00680060004300de003a
:100740004500dd0071092000914078000154a100ae
:1007500080c070000100780097e0b700000006003c
:100760008aa0a900e7416000c419dd00e10b200068
:1007700091407800f2c8b30082c0600083c070006e
:100780008000fd00bee0b7008000fd006801600051
:100790004311de004511dd00a109200091407800e1
:1007a0000154a10082c070008000fd009ae0b700f3
:1007b0008000fd00700060004400de004300dd00aa
:1007c00021082000914078000134a10080c0700011
:1007d0000100780082e0b700000006009460a900e4
:1007e00005e1a9008460a9000000060094e0a900ca
:1007f00011e1a90084e0a900000006009500a9000d
:1008000013e1a9008500a900000006009760a90077
:100810001fe1a9008760a900000006009780a900d9
:1008200021e1a9008780a900000006008460a900da
:10083000e7416000c419dd00510a200091407800b2
:10084000f2c8b30082c0600083c070008000fd0069
:10085000a5e0b7008000fd00680060004300de00f6
:100860004300dd0041092000914078000134a100df
:1008700080c070000100780094e0b700000006001e
:1008800084e0a900e7416000c419dd00710a20007e
:1008900091407800f2c8b30082c0600083c070004d
:1008a0008000fd00a7e0b7008000fd006800600048
:1008b0004300de004700dd00410920009140780040
:1008c0000174a10080c070000100780094e0b700be
:1008d000000006008500a900e7416000810a2000b1
:1008e0009140780082cfb30082c0600083c0700066
:1008f0008000fd00a8e0b7008000fd0068006000f7
:100900004300de0051092000914078000104a1005d
:1009100080c070000100780095e0b700000006007c
:100920008760a900e7416000c419dd00110b2000b9
:1009300091407800f2c8b30082c0600083c07000ac
:100940008000fd00b1e0b7008000fd00680060009d
:100950004300de004300dd00710920009140780073
:100960000134a10080c070000100780097e0b7005a
:10097000000006009780a900e7416000210b2000dd
:100980009140780082cfb30082c0600083c07000c5
:100990008000fd00b2e0b7008000fd00680060004c
:1009a0004300de004400dd00710920009140780022
:1009b0000144a10080c070000100780097e0b700fa
:1009c000000006000021ef001108880020088800c0
:1009d000000006000621ef006108880080088800fa
:1009e000000006000a21ef009008880000000600c1
:1009f0001421ef00d1088800f008880000000600ec
:100a00001821ef00e10888000009880000000600b6
:100a100080007800b0c2bf0066406000e64f500022
:100a200001003200f10fb200a1158800000006009d
:100a300023c2bf000004a2006100600000000600a5
:100a400033c2bf000004a200610060000000060085
:100a500053c2bf000004a200610060000000060055
:100a6000b3c2bf000004a2006100600000000600e5
:100a700021e2a9009560a9009580a9008560a900e0
:100a80008580a9000000060031e2a90097c0a900f6
:100a900097e0a90087c0a90087e0a9000000060030
:100aa00051e2a9009e40a9009e60a9008e40a900c5
:100ab0008e60a90000000600b1e2a9009f00a90015
:100ac0009f20a9008f00a9008f20a9000000060028
:100ad0008560a9008580a900e7416000c419dd0098
:100ae000910a200091407800f2c8b30082c06000f3
:100af00083c070008000fd00a9e0b7008000fd0009
:100b0000800178000307b200c419de00a10a2000aa
:100b10009140780082cfb30082c0600083c0700033
:100b20008000fd00aae0b7008000fd0068016000c1
:100b30004311de004311dd0051092000914078008f
:100b40000134a10082c070008000fd0095e0b70074
:100b50008000fd000008b2004700de004400dd0018
:100b600051092000914078000144a10080c070002c
:100b70000100780095e0b7000000060087c0a900da
:100b800087e0a900e7416000310b20009140780028
:100b900082cfb30082c0600083c070008000fd007f
:100ba000b3e0b7008000fd0001c7b30081416000e1
:100bb000310b200091407800f2c8b30082c0600081
:100bc00083c070008000fd00b3e0b7008000fd002e
:100bd000680160004311de004611dd00710920004c
:100be000914078000164a10082c070008000fd0087
:100bf00097e0b7008000fd000008b2004700de006b
:100c00004700dd0071092000914078000174a100c7
:100c100080c070000100780097e0b7000000060077
:100c20008e40a9008e60a900e7416000d10c200031
:100c30009140780082cfb30082c0600083c0700012
:100c40008000fd00cde0b7008000fd0001c7b300cb
:100c500081416000d10c200091407800f2c8b300bf
:100c600082c0600083c070008000fd00cde0b7004e
:100c70008000fd00680160004311de004211dd00cc
:100c8000e1092000914078000124a10082c0700099
:100c90008000fd009ee0b7008000fd000008b2006b
:100ca0004700de004300dd00e109200091407800ac
:100cb0000134a10080c07000010078009ee0b70000
:100cc000000006008f00a9008f20a900e741600006
:100cd000010d20009140780082cfb30082c06000f7
:100ce00083c070008000fd00d0e0b7008000fd00f0
:100cf00001c7b30081416000010d200091407800e0
:100d0000f2c8b30082c0600083c070008000fd00a4
:100d1000d0e0b7008000fd00680160004311de00f4
:100d2000f1092000914078000104a10082c0700008
:100d30008000fd009fe0b7008000fd000008b200c9
:100d40004700de0000404000f1092000914078009b
:100d50000114a10080c07000010078009fe0b7007e
:100d60000000060022c2bf00610060000000060013
:100d700032c2bf00610060000000060052c2bf0026
:100d80006100600000000600b2c2bf0061006000a8
:100d9000000006004211880000118800111188002f
:100da000010037003011800022c2bf000008a300fc
:100db000fcff3a008560a90000000600c21188000f
:100dc000801188009111880001003700b011800067
:100dd00032c2bf000008a300fcff3a0087c0a90090
:100de00000000600c212880080128800911288005c
:100df00001003700b012800052c2bf000008a300fb
:100e0000fcff3a008e40a90000000600c2158800d1
:100e1000801588009115880001003700b01580000a
:100e2000b2c2bf000008a300fcff3a008f00a90077
:100e3000000006008000780020c2bf00664060000d
:100e4000e64f500001003200f10fb200211188007e
:100e5000000006008000780030c2bf0066406000dd
:100e6000e64f500001003200f10fb200a1118800de
:100e7000000006008000780050c2bf00664060009d
:100e8000e64f500001003200f10fb200a1128800bd
:100e900000000600103a80000010a000720520003b
:100ea0006104200023742000814978008249780081
:100eb000804978002626ef002746e20005003d0025
:100ec00027c6bf000058a30001003a0084000700b5
:100ed00027e6a90027a6a9000000060080007800e8
:100ee000f2cf2f000001fd002626b6000001fd0014
:100ef000003020002626b7002031800080087800ce
:100f0000203180009000980020318000a0009800df
:100f100020318000b00098000001fd002626b600b8
:100f20000001fd00003020002626b700243180009b
:100f300025318000263180002731800061409000fb
:100f4000874f5000e7ff3a0000000600889fbe0070
:100f50008a9fbe0000047800010578007040900070
:100f600091c5b300814f500059003e006840900089
:100f7000814f500056003e0058409000e64f500010
:100f800053003e00c840900040c2b30080cf5000e4
:100f90004f003e0038409000f24f50004c003e00a1
:100fa0000004e0004a003200a840900010c3b300e3
:100fb00080cf500046003e000104e00044003200b3
:100fc00090c9b300984f100041003e000a00e000b5
:100fd0000800320042c0bf000080fb00c505de00f3
:100fe00091028000ff3ffc0000ceb3004260b700da
:100ff0009102880027c6bf004500de00e1046000c2
:101000000904e00001003a003500070027c6bf00d0
:101010000080fb004700de00804078000001eb000c
:101020000004e0000400320023c6bf000080fb0083
:101030004701de0027e6a900f0cf2f002626b600e4
:10104000003020002626b7001800780020318800e4
:10105000180090002031880028009000203188007e
:1010600038049000283188000104e00008003200b4
:1010700027e6a8000200e0000100320023e6a800f5
:101080000904e000050032001500070003003700e6
:101090000904e00001003a0027a6a9001000200082
:1010a0000a00e0000b00320092028000ff3ffc00cb
:1010b000c558dd0042c0bf007f40600001407000a5
:1010c00042e0b700920288001000200001003700c3
:1010d0000000eb004f05be004f04be0000000600fc
:1010e00021042000914078008180fb00c508de00cb
:1010f00092028000ff3ffc0000ceb3004260b700c8
:101100009202880050052000303b8800a00a200091
:10111000303b880027a6a80092028000ff3ffc0019
:10112000c508dd0042c0bf007f4060000140700084
:1011300042e0b70092028800000006000000fa00ba
:10114000881f7800151b880038c02700080363003b
:10115000061b8800871a8800bfba97008882620041
:10116000751a8800a41a8800931a8800221a880029
:10117000111a8800001a88000000d1006140600048
:101180000040400001342000914078000114a1008b
:1011900080c070000100780040e3b7004f04780081
:1011a0000080fa00000006006022b800060220005d
:1011b0000000d0008180d2000482d2008582d2005b
:1011c0000000a0000202520083825a000300310096
:1011d0000202420083824a000000a1000603e900e7
:1011e000f3ff3a0000000600efff07000400be0016
:1011f00000000600881f7800000478005001be003f
:101200004000be00040040008580480006014900ff
:1012100087814900009cbe000294be000400e100ea
:101220000588e1000690e1000798e1000200310026
:10123000680044001008e8004f0478000000060031
:10124000f4874700889fbe008a9fbe008c9fbe0027
:101250008e1f78000205be000004be00d4b79f00b8
:10126000e5b79f00f6b79f0087bf9f000000eb0027
:10127000c0b79f00b0b79f00a0b79f0090b79f0076
:1012800080b79f000d042000bfb097004fb09700bb
:10129000000140000000e0000f003d004f08de00ac
:1012a00000007100c0b79f004d00070001003d0025
:1012b000120020005000070001003d001200200035
:1012c0005500070061000700660007000f0040009e
:1012d000c8ff0700220037004f08de00000671003b
:1012e000ccb79f003e00070001003d001200200027
:1012f0004100070001003d001200200046000700e9
:10130000520007000fb297009fb297002fb39700cb
:10131000bfb39700590007000000520081805a00b7
:1013200002015b0083815b0080b79f0091b79f0043
:10133000a2b79f00b3b79f000007eb004f00070064
:101340000020e10001a8e10002b0e10003b8e100e3
:10135000010031001e0020000e005600c0b79f00a3
:101360004fb297000400e000070035001000200095
:10137000010020006011b80008047000898470002a
:101380000a0571008b8571008d06e900beff3a00e9
:101390000400e00003003d00320007000f004000a1
:1013a00094ff07004fa897000000e00004003a00f7
:1013b0000fb497009fb497002fb59700bfb5970063
:1013c0000800be000a01be004f0778004f06be00ad
:1013d0004f05be004f04be004f01b10000000600e3
:1013e0000180400090b79f000001eb008fb0970094
:1013f0000100e000000006000200700090b79f00ae
:101400000180400080b79f000001eb00ffa897001b
:101410000100e000000006000200700080b79f009d
:10142000018040006faa9700cf20de00010070000d
:10143000f0af9f00040242000800be000a01be0097
:101440004f18de000002720000000600e4af9f00ab
:101450000804440089844c000a054d008b854d002a
:10146000000006003fb29700cfb297005fb397002d
:10147000efb3970000fe2f00000006003fb097007a
:10148000cfb097005fb19700efb197000000060062
:10149000881f780018002000881f780068ff070068
:1014a0008f87e9004f04780000000600801feb00e2
:1014b00063ff07008f87e90000000600889fbe00d9
:1014c0008a9fbe008c1f78000205be000004be008b
:1014d000e00f5000e08f5800e00f5900e08f5900f6
:1014e0000c003d006000b8006011b8000804500016
:1014f000898458000a0559008b8559001c0020007a
:101500001f00070008003d00180007000006eb0060
:10151000050037000006eb001900070002003d003f
:101520000f0007001c0020000800be000a01be00da
:10153000d7ff07000203be000002be000c00e0005f
:1015400001003200060007000400be000601be00d4
:101550004f0678004f05be004f04be000000060095
:101560006000b8006011b8000000370004025000ad
:101570008582580006035900878359000000060041
:10158000e00f5200e08f5a00e00f5b00e08f5b003d
:1015900000000600889fbe008a9fbe008c1f780056
:1015a0000205be000004be00e00f5000e08f5800ae
:1015b000e00f5900e08f59000a003d006000b800bc
:1015c0006011b80008045000898458000a055900c9
:1015d0008b8559001c0020001800070007003d0003
:1015e000050037000006eb001400070003003d0073
:1015f0006000b8006011b800150007000800be00c8
:101600000a01be00a9ff07000203be000002be00df
:101610000c00e000030032006000b8006011b80068
:101620000b0007000400be000601be004f06780054
:101630004f05be004f04be0000000600e00f520040
:10164000e08f5a00e00f5b00e08f5b0000000600b7
:101650000402500085825800060359008783590010
:041660000000060080
:020000040000fa
:020000040001f9
:0457f0003ffe000078
:020000040000fa
:020000040001f9
:0457f400ffff0000b3
:020000040000fa
:020000040001f9
:0457f8001efa000095
:020000040000fa
:020000040001f9
:0457fc009f390000d1
:020000040000fa
:10000800180300001803000018030000180300007c
:10001800180300001803000018030000180300006c
:10002800380c00001803000018030000122200001a
:1000380018030000180300001803000054220000f1
:10004800962200001803000018030000520d00005b
:10005800180300001803000018030000180300002c
:10006800180300001803000018030000260c000005
:100078005e0c0000180300001803000018030000bd
:10008800180300001803000018030000d82200001d
:100098001a230000840c0000880d000018030000db
:1000a80018030000180300001803000018030000dc
:1000b80018030000180300001803000018030000cc
:1000c80018030000180300001803000018030000bc
:1000d80018030000180300001803000018030000ac
:1000e800180300001803000018030000180300009c
:1000f80018030000aa0c0000d00c00001803000030
:10010800180300001803000018030000180300007b
:10011800180300001803000018030000180300006b
:10012800180300001803000018030000180300005b
:10013800180300001803000018030000180300004b
:10014800180300001803000018030000180300003b
:10015800180300001803000018030000180300002b
:100168001803000018030000be0d0000180300006b
:10017800180300001803000018030000180300000b
:10018800f40d000018030000180300001803000015
:1001980018030000180300001803000018030000eb
:1001a80018030000180300001803000018030000db
:1001b80018030000180300001803000018030000cb
:1001c80018030000180300001803000018030000bb
:1001d80018030000180300001803000018030000ab
:1001e800180300001803000018030000180300009b
:0801f8001803000018030000c9
:020000040000fa
:10020800180300001803000018030000180300007a
:10021800180300001803000018030000180300006a
:10022800380c000018030000180300001222000018
:1002380018030000180300001803000054220000ef
:10024800962200001803000018030000520d000059
:10025800180300001803000018030000180300002a
:10026800180300001803000018030000260c000003
:100278005e0c0000180300001803000018030000bb
:10028800180300001803000018030000d82200001b
:100298001a230000840c0000880d000018030000d9
:1002a80018030000180300001803000018030000da
:1002b80018030000180300001803000018030000ca
:1002c80018030000180300001803000018030000ba
:1002d80018030000180300001803000018030000aa
:1002e800180300001803000018030000180300009a
:1002f80018030000aa0c0000d00c0000180300002e
:100308001803000018030000180300001803000079
:100318001803000018030000180300001803000069
:100328001803000018030000180300001803000059
:100338001803000018030000180300001803000049
:100348001803000018030000180300001803000039
:100358001803000018030000180300001803000029
:100368001803000018030000be0d00001803000069
:100378001803000018030000180300001803000009
:10038800f40d000018030000180300001803000013
:1003980018030000180300001803000018030000e9
:1003a80018030000180300001803000018030000d9
:1003b80018030000180300001803000018030000c9
:1003c80018030000180300001803000018030000b9
:1003d80018030000180300001803000018030000a9
:1003e8001803000018030000180300001803000099
:0803f8001803000018030000c7
:020000040000fa
:101664000d0a0000002a0000203d00003d3d00005e
:101674003d3d00003d3d00003d3d00003d3d00007e
:101684003d3d00003d3d00003d3d00003d3d00006e
:101694003d3d00003d3d00003d3d00003d2000007b
:1016a4002a0d00000a0000002a200000202000006b
:1016b4007665000072730000696f00006e20000000
:1016c4005b760000256400002e250000642e0000d7
:1016d400256400005d200000202000002020000080
:1016e40020200000202000002a0d00000a00000035
:1016f4002a200000202000002020000020200000dc
:1017040020200000202000002020000020200000d5
:1017140020200000202000002020000020200000c5
:101724002020000020200000202a00000d0a0000d4
:1017340000320000303a0000323500003a34000034
:10174400330000004a7500006c20000020340000c3
:101754002032000030310000380000002a20000050
:101764002020000025730000207c000020250000bc
:1017740073200000202000002a0d00000a00000051
:10178400646500006275000067200000676f000058
:101794007420000064610000746100000d0a000000
:1017a40000640000656200007567000020660000a8
:1017b400726100006d650000206f00006b21000065
:1017c4000d0a0000006400006562000075670000f7
:1017d40020660000726100006d6500002063000057
:1017e400727500007368000065640000210d00003c
:1017f4000a00000077610000726e0000696e00004c
:10180400673b000020740000617300006b2000003f
:10181400256400002061000064640000206600006c
:0c182400616900006c0d00000a0000006b
:020000040000fa
:101830000200fa00004f78000080fa000000060065
:101840000000fa000080fa0000000600801f780007
:101850000000fa008660a900e06380000000e80054
:10186000e06388000080fa004f0078000040060026
:101870003600f800809fbe00829fbe00849fbe009d
:10188000869fbe000000fa008400a900c05e8000b0
:1018900000000100e06380000000e800e0638800d1
:1018a0000080fa004f03be004f02be004f01be0091
:1018b0004f00be003600f900004006003600f80078
:1018c000809fbe00829fbe00849fbe00869fbe0098
:1018d0000000fa008680a900d05e800000000100b0
:1018e000e06380000000e800e06388000080fa0008
:1018f0004f03be004f02be004f01be004f00be00ae
:101900003600f900004006003600f800809fbe0057
:10191000829fbe00849fbe00869fbe000000fa002a
:1019200087a0a900e05e800000000100e063800065
:101930000000e800e06388000080fa004f03be006a
:101940004f02be004f01be004f00be003600f9003e
:10195000004006003600f800809fbe00829fbe0057
:10196000849fbe00869fbe000000fa008aa0a900e6
:10197000f05e800000000100e06380000000e800ed
:10198000e06388000080fa004f03be004f02be00f3
:101990004f01be004f00be003600f90000400600b7
:1019a0003600f800809fbe00829fbe00849fbe006c
:1019b000869fbe000000fa008ac0a900005f800078
:1019c00000000100e06380000000e800e0638800a0
:1019d0000080fa004f03be004f02be004f01be0060
:1019e0004f00be003600f900004006000400fa0077
:1019f000004f7800110798000080fa0000000600f0
:101a00000400fa00004f7800110798000080fa00e7
:101a1000000006000400fa00004f7800110798004b
:101a20000080fa00000006000400fa00004f780071
:101a3000110798000080fa00000006000400fa0078
:101a4000004f7800110798000080fa00000006009f
:101a50000400fa00004f7800110798000080fa0097
:101a6000000006000400fa00004f780011079800fb
:101a70000080fa00000006000400fa00004f780021
:101a8000110798000080fa00000006000200fa002a
:101a9000000f78001e007800205f88000080fa00a8
:101aa000000006003600f800809fbe00829fbe0046
:101ab000849fbe00869fbe000200fa008560a900d8
:101ac000b2060200000000000004e000fcff32004b
:101ad00030118000004f7800115f80001e407800b8
:101ae000010001009e80fb00e06380000080400058
:101af000e06388000080fa004f03be004f02be0082
:101b00004f01be004f00be003600f9000040060045
:101b10003600f800809fbe00829fbe00849fbe00fa
:101b2000869fbe000200fa0087c0a900b806020026
:101b3000000000000004e000fcff3200b011800053
:101b4000004f7800215f80001e40780001000100f6
:101b50009e80fb00e063800000804000e06388001e
:101b60000080fa004f03be004f02be004f01be00ce
:101b70004f00be003600f900004006003600f800b5
:101b8000809fbe00829fbe00849fbe00869fbe00d5
:101b90000200fa008e40a900be060200000000000c
:101ba0000004e000fcff3200b0128000004f78001b
:101bb000315f80001e407800010001009e80fb0024
:101bc000e063800000804000e06388000080fa004d
:101bd0004f03be004f02be004f01be004f00be00cb
:101be0003600f900004006003600f800809fbe0075
:101bf000829fbe00849fbe00869fbe000200fa0046
:101c00008f00a900c4060200000000000004e000ec
:101c1000fcff3200b0158000004f7800415f80006b
:101c20001e407800010001009e80fb00e063800000
:101c300000804000e06388000080fa004f03be008f
:101c40004f02be004f01be004f00be003600f9003b
:101c5000004006000800fa00200798006000b80065
:101c6000008fbe0000092d0031002000008fbe0053
:101c70002e009000300798003e019000e40f5100c4
:101c800049003200be019000e48f51000d003e007b
:101c90003e009000e10f5000250032003e01900010
:101ca000e10f510018003900be019000e28f510091
:101cb000290032003e009000e30f50003000320057
:101cc0006a0037003e019000e70f51005e003200cd
:101cd000be019000e78f510004003e003e009000de
:101ce000e50f50003a003200600037003e019000de
:101cf000e80f510040003200be019000e98f510012
:101d000047003200590037001e00be00024b200081
:101d100003002000d4080200000000000081eb0056
:101d20008081eb00021f4000039748004f003700fe
:101d30001e00be000296200003002000d40802000e
:101d4000000000000081eb008081eb00021f4000da
:101d500003974800450037001e00be00022c2100fa
:101d600003002000d4080200000000000081eb0006
:101d70008081eb00021f4000039748003b003700c2
:101d80001e00be000258220003002000d4080200fa
:101d9000000000000081eb008081eb00021f40008a
:101da00003974800310037001e00be0002b0240037
:101db00003002000d4080200000000000081eb00b6
:101dc0008081eb00021f4000039748002700370086
:101dd0001e00be000260290003002000d40802009b
:101de000000000000081eb008081eb00021f40003a
:101df000039748001d0037001e00be0002202c0083
:101e000013002000d4080200000000000081eb0055
:101e10008081eb00021f4000039748001300370049
:101e20001e00be0002202c0013002000d408020077
:101e3000000000000081eb008081eb00021f4000e9
:101e400003974800090037001e00be0042422f00e1
:101e500003002000d4080200000000000081eb0015
:101e60008081eb00021f4000039748001e007800ad
:101e70000080fa00000006000c00fa00300798000d
:101e800041079800520798000000eb0020079800d7
:101e90000000eb00100798000000eb00000f780036
:101ea000ae0090000000280000807000200798001d
:101eb0003e00900010009000630060000000e00011
:101ec00006003a003e00900010009000780060008c
:101ed000e80f500001003a00290037003e00900052
:101ee0001000900063006000e10f500009003a000c
:101ef0003e0090001000900078006000e80f500055
:101f000004003a002e0090000020a0002007980056
:101f10001b0037003e00900010009000630060003e
:101f2000e20f500009003a003e00900010009000bf
:101f300078006000e80f500004003a002e00900086
:101f40000010a000200798000d0037003e00900010
:101f500010009000630060000000e00008003a00fc
:101f60003e0090001000900078006000f00f5000dc
:101f700003003a002e0090006000b3002007980094
:101f80003e00900010009000640060000000e0003f
:101f9000010032000a0037003e009000100090005f
:101fa0004200de00614060000080fb00e20f500054
:101fb00003003a002e0090000000a00020079800c7
:101fc0009e009000004020000080700010079800e4
:101fd0003e009000100078001eff0700000f780000
:101fe0003805020000000000b00020006805020073
:101ff000000000001e0178009e0090002e0090005e
:10200000ca060200000000005e009000105f880019
:102010000080fa00000006000c00fa00300798006b
:1020200041079800520798000000eb002007980035
:102030000000eb00100798000000eb00000f780094
:10204000ae0090000000280000807000200798007b
:102050003e00900010009000630060000000e0006f
:1020600006003a003e0090001000900078006000ea
:10207000e80f500001003a00290037003e009000b0
:102080001000900063006000e10f500009003a006a
:102090003e0090001000900078006000e80f5000b3
:1020a00004003a002e0090000020a00020079800b5
:1020b0001b0037003e00900010009000630060009d
:1020c000e20f500009003a003e009000100090001e
:1020d00078006000e80f500004003a002e009000e5
:1020e0000010a000200798000d0037003e0090006f
:1020f00010009000630060000000e00008003a005b
:102100003e0090001000900078006000f00f50003a
:1021100003003a002e0090006000b30020079800f2
:102120003e00900010009000640060000000e0009d
:10213000010032000a0037003e00900010009000bd
:102140004200de00614060000080fb00e20f5000b2
:1021500003003a002e0090000000a0002007980025
:102160009e00900000402000008070001007980042
:102170003e00900010007800b6fe0700000f7800c7
:102180004405020000000000b0002000be0502006f
:10219000000000001e0178009e0090002e009000bc
:1021a000de060200000000005e009000205f880054
:1021b0000080fa00000006000c00fa0030079800ca
:1021c00041079800520798000000eb002007980094
:1021d0000000eb00100798000000eb00000f7800f3
:1021e000ae009000000028000080700020079800da
:1021f0003e00900010009000630060000000e000ce
:1022000006003a003e009000100090007800600048
:10221000e80f500001003a00290037003e0090000e
:102220001000900063006000e10f500009003a00c8
:102230003e0090001000900078006000e80f500011
:1022400004003a002e0090000020a0002007980013
:102250001b0037003e0090001000900063006000fb
:10226000e20f500009003a003e009000100090007c
:1022700078006000e80f500004003a002e00900043
:102280000010a000200798000d0037003e009000cd
:1022900010009000630060000000e00008003a00b9
:1022a0003e0090001000900078006000f00f500099
:1022b00003003a002e0090006000b3002007980051
:1022c0003e00900010009000640060000000e000fc
:1022d000010032000a0037003e009000100090001c
:1022e0004200de00614060000080fb00e20f500011
:1022f00003003a002e0090000000a0002007980084
:102300009e009000004020000080700010079800a0
:102310003e009000100078004efe0700000f78008d
:102320005005020000000000b0002000100602006e
:10233000000000001e0178009e0090002e0090001a
:10234000f2060200000000005e009000305f88008e
:102350000080fa00000006000c00fa003007980028
:1023600041079800520798000000eb0020079800f2
:102370000000eb00100798000000eb00000f780051
:10238000ae00900000002800008070002007980038
:102390003e00900010009000630060000000e0002c
:1023a00006003a003e0090001000900078006000a7
:1023b000e80f500001003a00290037003e0090006d
:1023c0001000900063006000e10f500009003a0027
:1023d0003e0090001000900078006000e80f500070
:1023e00004003a002e0090000020a0002007980072
:1023f0001b0037003e00900010009000630060005a
:10240000e20f500009003a003e00900010009000da
:1024100078006000e80f500004003a002e009000a1
:102420000010a000200798000d0037003e0090002b
:1024300010009000630060000000e00008003a0017
:102440003e0090001000900078006000f00f5000f7
:1024500003003a002e0090006000b30020079800af
:102460003e00900010009000640060000000e0005a
:10247000010032000a0037003e009000100090007a
:102480004200de00614060000080fb00e20f50006f
:1024900003003a002e0090000000a00020079800e2
:1024a0009e009000004020000080700010079800ff
:1024b0003e00900010007800e6fd0700000f780055
:1024c0005c05020000000000b0002000620602006f
:1024d000000000001e0178009e0090002e00900079
:1024e00006070200000000005e009000405f8800c8
:1024f0000080fa00000006000000fa009580a800a5
:102500000080fa00000006000000fa009580a90093
:102510000080fa00000006000000fa009560a800a4
:102520000080fa00000006000000fa009560a90093
:102530000080fa00000006000000fa0097e0a80002
:102540000080fa00000006000000fa0097e0a900f1
:102550000080fa00000006000000fa0097c0a80002
:102560000080fa00000006000000fa0097c0a900f1
:102570000080fa00000006000000fa009e60a8003b
:102580000080fa00000006000000fa009e60a9002a
:102590000080fa00000006000000fa009e40a8003b
:1025a0000080fa00000006000000fa009e40a9002a
:1025b0000080fa00000006000000fa009f20a8003a
:1025c0000080fa00000006000000fa009f20a90029
:1025d0000080fa00000006000000fa009f00a8003a
:1025e0000080fa00000006000000fa009f00a90029
:1025f0000080fa00000006000400fa00000f7800d6
:10260000110798000d0037001805020000000000b7
:102610000004e000fcff3a001e0078001040780043
:102620000080fb001e0fe8001a07020000000000f7
:102630001e0090000000e900100798001e009000a6
:102640000000e000f0ff3a00100020000080fa00d7
:10265000000006000400fa00000f7800110798003f
:102660000d00370020050200000000000004e0001b
:10267000fcff3a001e007800104078000080fb004c
:102680001e0fe8002a070200000000001e00900054
:102690000000e900100798001e0090000000e00014
:1026a000f0ff3a00100020000080fa000000060051
:1026b0000400fa00000f7800110798000d003700a1
:1026c00028050200000000000004e000fcff3a00c2
:1026d0001e007800104078000080fb001e0fe8000c
:1026e0003a070200000000001e0090000000e90010
:1026f000100798001e0090000000e000f0ff3a0074
:10270000100020000080fa00000006000400fa001b
:10271000000f7800110798000d0037003005020007
:10272000000000000004e000fcff3a001e007800fa
:10273000104078000080fb001e0fe8000805020032
:10274000000000001e0090000000e9001007980043
:102750001e0090000000e000f0ff3a001000200092
:102760000080fa00000006000000fa0000000000ef
:10277000000000000040fe0000000000000000001b
:102780000080fa00000006000000fa000080fa0055
:10279000000006000000fa000080fa0000000600b9
:1027a0000000fa0000000000000000000000fe0031
:1027b0000000000000000000000000000080fa009f
:1027c000000006000000fa000080fa000000060089
:1027d0000000fa000060fe000080fa000000060021
:1027e0000200fa00c802a900c822a900c842a90034
:1027f000c862a900c882a900c8a2a900c8c2a900cd
:10280000c8e2a900c902a900c922a900c942a900b9
:10281000c962a900c982a900c9a2a900c9c2a900a8
:10282000c9e2a900ca02a900ca22a900ca42a90095
:10283000ca62a900ca82a900caa2a900cac2a90084
:10284000cae2a900cb02a900cb22a900cb42a90071
:10285000cb62a900cb82a900cba2a900cbc2a90060
:10286000cbe2a900d182a900d1e2a900d382a900bc
:10287000d3a2a900d3c2a900d3e2a900d802a9001b
:10288000d822a900d842a900d862a900d882a900fc
:10289000d8a2a900d8c2a900d8e2a900d902a900eb
:1028a000d922a900d942a900d962a900da02a90057
:1028b000da22a900da42a900da62a900da82a900c4
:1028c000daa2a900dac2a900dae2a900db02a900b3
:1028d000db22a900db42a900db62a900e002a9001b
:1028e000e022a900e042a900e062a900e082a9007c
:1028f000e0a2a900e0c2a900e0e2a900e202a9006a
:10290000e222a900e242a900e262a900e282a90053
:10291000e2a2a900e2c2a900e2e2a900e802a9003d
:10292000e822a900e842a900e862a900e882a9001b
:10293000e8a2a900e8c2a900ea02a900ea22a900c7
:10294000ea42a900ea62a900ea82a900eaa2a90073
:10295000eac2a900f042a900f062a900f0c2a900f1
:10296000f0e2a900f102a900f122a900f242a900b7
:10297000f262a900f2c2a900f2e2a900f302a900e2
:10298000f322a9003174200091407800f0c8b30010
:1029900000c0600043e7b700317420009140780028
:1029a00080cfb30000c0600043e7b7004207a90032
:1029b0004227a9004247a90081e0a8004187a8005a
:1029c0000000eb00000f7800010037001e0fe80048
:1029d000f07c20009e0f1000fcff34000080fa0005
:1029e000000006000000fa008e05a8008b65a80014
:1029f0008885a80088a5a80088c5a80088e5a80043
:102a00008b45a8008b25a8008b05a8008ae5a800a7
:102a10008ac5a8008aa5a8008a85a8008a45a800ba
:102a20008a05a80089e5a80089c5a80089a5a8008d
:102a30008b85a8008de5a8008985a80085a5a9003b
:102a400084c5a900415820009140780070ceb300a1
:102a500000c060000034a00084e5b70041582000a9
:102a60009140780080cfb30000c060003040b300d8
:102a700084e5b70086e5a90086c5a9006158200055
:102a80009140780000cfb30000c060003040b30038
:102a900086e5b70083e5a800315820009140780012
:102aa00070ccb30000c0600083e5b70082c5bf00f2
:102ab000f043b20082e5b700215820009140780031
:102ac000f0ccb30000c060000044a00082e5b70075
:102ad000215820009140780080cfb30000c06000f2
:102ae00082e5b7008305a9008325a9008345a900d5
:102af0000080fa00000006000000fa0085e5a8004a
:102b00000080fa00000006000000fa0085e5a90038
:102b10000080fa00000006000200fa000000eb004e
:102b2000000f7800040037001e00780080c0eb0022
:102b3000130007001e0fe800400120009e0f100048
:102b4000f9ff34000080fa00000006000200fa00dd
:102b50000000eb00000f7800040037001e00780032
:102b60008040eb00060007001e0fe8004001200037
:102b70009e0f1000f9ff34000080fa0000000600ec
:102b80000600fa00004f7800114798001e80fb00f5
:102b90006101b90012079800230798004001200046
:102ba000010020001e019000ae019000800f510036
:102bb000818f5900b6033e001e009000ae009000c9
:102bc00000600100140037003e0037006c00370041
:102bd0009a003700c8003700f600370018013700a8
:102be00046013700740137009e013700c0013700ed
:102bf000ee0137001c0237004a023700740237002a
:102c000096023700c4023700f20237002003370073
:102c100042033700700337001e409000614060009f
:102c2000614160006159200091407800e0cfb3001d
:102c300000c060000240700096e5b7001e409000a2
:102c40000080fb000000d100614060006141600035
:102c5000e159200091407800e0cfb30000c060004f
:102c6000024070009ee5b7001e4090000080fb000f
:102c70004200de006140600061416000615a200056
:102c800091407800e0cfb30000c0600002407000c7
:102c9000a6e5b7001e4090000080fb004300de0068
:102ca0006140600061416000e15a2000914078007d
:102cb000e0cfb30000c0600002407000aee5b70096
:102cc000730337001e409000614060006140600067
:102cd0004301dd00315920009140780070cfb300ee
:102ce00000c060000240700093e5b7001e409000f5
:102cf0000080fb000000d100614060006140600086
:102d00004301dd00b15920009140780070cfb3003d
:102d100000c06000024070009be5b7001e409000bc
:102d20000080fb004200de00614060006140600006
:102d30004301dd00315a20009140780070cfb3008c
:102d400000c0600002407000a3e5b7001e40900084
:102d50000080fb004300de006140600061406000d5
:102d60004301dd00b15a20009140780070cfb300dc
:102d700000c0600002407000abe5b70044033700bc
:102d80001e40900061406000614060004401dd0031
:102d90000159200091407800f0ceb30000c06000df
:102da0000240700090e5b7001e4090000080fb00dc
:102db0000000d10061406000614060004401dd001e
:102dc0008159200091407800f0ceb30000c060002f
:102dd0000240700098e5b7001e4090000080fb00a4
:102de0004200de0061406000614060004401dd009f
:102df000015a200091407800f0ceb30000c060007e
:102e000002407000a0e5b7001e4090000080fb006b
:102e10004300de0061406000614060004401dd006d
:102e2000815a200091407800f0ceb30000c06000cd
:102e300002407000a8e5b700150337001e4090005f
:102e400061406000614060004501dd0001592000e3
:102e500091407800f0cdb30000c0600002407000e7
:102e600090e5b7001e4090000080fb000000d100fc
:102e700061406000614060004501dd008159200033
:102e800091407800f0cdb30000c0600002407000b7
:102e900098e5b7001e4090000080fb004200de0075
:102ea00061406000614060004501dd00015a200082
:102eb00091407800f0cdb30000c060000240700087
:102ec000a0e5b7001e4090000080fb004300de003c
:102ed00061406000614060004501dd00815a2000d2
:102ee00091407800f0cdb30000c060000240700057
:102ef000a8e5b700e60237001e4090006140600080
:102f0000614060004601dd000159200091407800d9
:102f1000f0cbb30000c060000240700090e5b70045
:102f20001e4090000080fb000000d1006140600066
:102f3000614060004601dd00815920009140780029
:102f4000f0cbb30000c060000240700098e5b7000d
:102f50001e4090000080fb004200de0061406000e7
:102f6000614060004601dd00015a20009140780078
:102f7000f0cbb30000c0600002407000a0e5b700d5
:102f80001e4090000080fb004300de0061406000b6
:102f9000614060004601dd00815a200091407800c8
:102fa000f0cbb30000c0600002407000a8e5b7009d
:102fb000b70237001e40900061406000c700dd008e
:102fc00090c5bf000074a1000140700090e5b700fb
:102fd0001e4090000080fb000000d10061406000b6
:102fe000c700dd0098c5bf000074a100014070005b
:102ff00098e5b7001e4090000080fb004200de0014
:1030000061406000c700dd00a0c5bf000074a100e2
:1030100001407000a0e5b7001e4090000080fb005a
:103020004300de0061406000c700dd00a8c5bf00ae
:103030000074a10001407000a8e5b70094023700b9
:103040001e40900061406000614060004201dd0070
:103050003159200091407800b0cfb30000c060002b
:103060000240700093e5b7001e4090000080fb0016
:103070000000d10061406000614060004201dd005d
:10308000b159200091407800b0cfb30000c060007b
:10309000024070009be5b7001e4090000080fb00de
:1030a0004200de0061406000614060004201dd00de
:1030b000315a200091407800b0cfb30000c06000ca
:1030c00002407000a3e5b7001e4090000080fb00a6
:1030d0004300de0061406000614060004201dd00ad
:1030e000b15a200091407800b0cfb30000c060001a
:1030f00002407000abe5b700650237001e4090004b
:103100006140600061406000004140003159200092
:1031100091407800d0cfb30000c060000240700042
:1031200093e5b7001e4090000080fb000000d10036
:10313000614060006140600000414000b1592000e2
:1031400091407800d0cfb30000c060000240700012
:103150009be5b7001e4090000080fb004200de00af
:10316000614060006140600000414000315a200031
:1031700091407800d0cfb30000c0600002407000e2
:10318000a3e5b7001e4090000080fb004300de0076
:10319000614060006140600000414000b15a200081
:1031a00091407800d0cfb30000c0600002407000b2
:1031b000abe5b700360237001e409000614060006a
:1031c000614160003159200091407800e0cfb300a8
:1031d00000c060000240700093e5b7001e40900000
:1031e0000080fb000000d100614060006141600090
:1031f000b159200091407800e0cfb30000c06000da
:10320000024070009be5b7001e4090000080fb006c
:103210004200de006140600061416000315a2000e0
:1032200091407800e0cfb30000c060000240700021
:10323000a3e5b7001e4090000080fb004300de00c5
:103240006140600061416000b15a20009140780007
:10325000e0cfb30000c0600002407000abe5b700f3
:103260000b0237001e40900061406000c700dd0087
:1032700092c5bf000074a1000140700092e5b70044
:103280001e4090000080fb000000d1006140600003
:10329000c700dd009ac5bf000074a10001407000a6
:1032a0009ae5b7001e4090000080fb004200de005f
:1032b00061406000c700dd00a2c5bf000074a1002e
:1032c00001407000a2e5b7001e4090000080fb00a6
:1032d0004300de0061406000c700dd00aac5bf00fa
:1032e0000074a10001407000aae5b700e8013700b2
:1032f0001e40900061406000614060004601dd00ba
:103300002159200091407800f0cbb30000c060004c
:103310000240700092e5b7001e4090000080fb0064
:103320000000d10061406000614060004601dd00a6
:10333000a159200091407800f0cbb30000c060009c
:10334000024070009ae5b7001e4090000080fb002c
:103350004200de0061406000614060004601dd0027
:10336000215a200091407800f0cbb30000c06000eb
:1033700002407000a2e5b7001e4090000080fb00f4
:103380004300de0061406000614060004601dd00f6
:10339000a15a200091407800f0cbb30000c060003b
:1033a00002407000aae5b700b90137001e40900046
:1033b00061406000614060004501dd00215920004e
:1033c00091407800f0cdb30000c060000240700072
:1033d00092e5b7001e4090000080fb000000d10085
:1033e00061406000614060004501dd00a15920009e
:1033f00091407800f0cdb30000c060000240700042
:103400009ae5b7001e4090000080fb004200de00fd
:1034100061406000614060004501dd00215a2000ec
:1034200091407800f0cdb30000c060000240700011
:10343000a2e5b7001e4090000080fb004300de00c4
:1034400061406000614060004501dd00a15a20003c
:1034500091407800f0cdb30000c0600002407000e1
:10346000aae5b7008a0137001e4090006140600065
:10347000614060004401dd00215920009140780046
:10348000f0ceb30000c060000240700092e5b700cb
:103490001e4090000080fb000000d10061406000f1
:1034a000614060004401dd00a15920009140780096
:1034b000f0ceb30000c06000024070009ae5b70093
:1034c0001e4090000080fb004200de006140600072
:1034d000614060004401dd00215a200091407800e5
:1034e000f0ceb30000c0600002407000a2e5b7005b
:1034f0001e4090000080fb004300de006140600041
:10350000614060004401dd00a15a20009140780034
:10351000f0ceb30000c0600002407000aae5b70022
:103520005b0137001e409000614060006141600017
:103530002159200091407800e0cfb30000c0600026
:103540000240700092e5b7001e4090000080fb0032
:103550000000d1006140600061416000a15920007d
:1035600091407800e0cfb30000c0600002407000de
:103570009ae5b7001e4090000080fb004200de008c
:103580006140600061416000215a20009140780054
:10359000e0cfb30000c0600002407000a2e5b700b9
:1035a0001e4090000080fb004300de006140600090
:1035b00061416000a15a200091407800e0cfb30043
:1035c00000c0600002407000aae5b700300137007b
:1035d0001e40900061406000c700dd0091c5bf0043
:1035e0000074a1000140700091e5b7001e409000fa
:1035f0000080fb000000d10061406000c700dd00da
:1036000099c5bf000074a1000140700099e5b700a2
:103610001e4090000080fb004200de006140600020
:10362000c700dd00a1c5bf000074a100014070000b
:10363000a1e5b7001e4090000080fb004300de00c3
:1036400061406000c700dd00a9c5bf000074a10093
:1036500001407000a9e5b7000d0137001e40900041
:1036600061406000614060004601dd0011592000aa
:1036700091407800f0cbb30000c0600002407000c1
:1036800091e5b7001e4090000080fb000000d100d3
:1036900061406000614060004601dd0091592000fa
:1036a00091407800f0cbb30000c060000240700091
:1036b00099e5b7001e4090000080fb004200de004c
:1036c00061406000614060004601dd00115a200049
:1036d00091407800f0cbb30000c060000240700061
:1036e000a1e5b7001e4090000080fb004300de0013
:1036f00061406000614060004601dd00915a200099
:1037000091407800f0cbb30000c060000240700030
:10371000a9e5b700de0037001e4090006140600060
:10372000614060004501dd001159200091407800a2
:10373000f0cdb30000c060000240700091e5b7001a
:103740001e4090000080fb000000d100614060003e
:10375000614060004501dd009159200091407800f2
:10376000f0cdb30000c060000240700099e5b700e2
:103770001e4090000080fb004200de0061406000bf
:10378000614060004501dd00115a20009140780041
:10379000f0cdb30000c0600002407000a1e5b700aa
:1037a0001e4090000080fb004300de00614060008e
:1037b000614060004501dd00915a20009140780091
:1037c000f0cdb30000c0600002407000a9e5b70072
:1037d000af0037001e409000614060006140600013
:1037e0004401dd003159200091407800f0ceb30053
:1037f00000c060000240700093e5b7001e409000da
:103800000080fb000000d10061406000614060006a
:103810004401dd00b159200091407800f0ceb300a2
:1038200000c06000024070009be5b7001e409000a1
:103830000080fb004200de006140600061406000eb
:103840004401dd00315a200091407800f0ceb300f1
:1038500000c0600002407000a3e5b7001e40900069
:103860000080fb004300de006140600061406000ba
:103870004401dd00b15a200091407800f0ceb30041
:1038800000c0600002407000abe5b7008000370068
:103890001e40900061406000c700dd0095c5bf007c
:1038a0000074a1000140700095e5b7001e40900033
:1038b0000080fb000000d10061406000c700dd0017
:1038c0009dc5bf000074a100014070009de5b700d8
:1038d0001e4090000080fb004200de00614060005e
:1038e000c700dd00a5c5bf000074a1000140700045
:1038f000a5e5b7001e4090000080fb004300de00fd
:1039000061406000c700dd00adc5bf000074a100cc
:1039100001407000ade5b7005d0037001e4090002b
:1039200061406000614060004401dd0011592000e9
:1039300091407800f0ceb30000c0600002407000fb
:1039400091e5b7001e4090000080fb000000d10010
:1039500061406000614060004401dd009159200039
:1039600091407800f0ceb30000c0600002407000cb
:1039700099e5b7001e4090000080fb004200de0089
:1039800061406000614060004401dd00115a200088
:1039900091407800f0ceb30000c06000024070009b
:1039a000a1e5b7001e4090000080fb004300de0050
:1039b00061406000614060004401dd00915a2000d8
:1039c00091407800f0ceb30000c06000024070006b
:1039d000a9e5b7002e0037001e409000614060004e
:1039e000614060004201dd002159200091407800d3
:1039f000b0cfb30000c060000240700092e5b70095
:103a00001e4090000080fb000000d100614060007b
:103a1000614060004201dd00a15920009140780022
:103a2000b0cfb30000c06000024070009ae5b7005c
:103a30001e4090000080fb004200de0061406000fc
:103a4000614060004201dd00215a20009140780071
:103a5000b0cfb30000c0600002407000a2e5b70024
:103a60001e4090000080fb004300de0061406000cb
:103a7000614060004201dd00a15a200091407800c1
:103a8000b0cfb30000c0600002407000aae5b700ec
:103a90000080fa00000006000800fa00004f7800dd
:103aa0001e80fb006101b9002207980033079800cf
:103ab00040012000010020002e019000be01900076
:103ac000800f5100818f590051023e002e0090005e
:103ad000be0090000060010014003700280037008d
:103ae00044003700600037007c0037009800370042
:103af000b0003700cc003700e8003700fc0037008a
:103b000014013700300137004c01370068013700dd
:103b10007c01370094013700b0013700cc01370039
:103b2000e8013700000237001c02370096c5bf00cd
:103b300061406000804078009ec5bf006140600029
:103b40000080fb000000400080c07000a6c5bf00e0
:103b5000614060000080fb004200dd0080c070001a
:103b6000aec5bf00614060000080fb004300dd0087
:103b700000c070000080fb0010079800260237008c
:103b800093c5bf000080fb004300de006140600081
:103b9000804078009bc5bf000080fb004300de0032
:103ba000614060000080fb000000400080c07000a9
:103bb000a3c5bf000080fb004300de006140600041
:103bc0000080fb004200dd0080c07000abc5bf007c
:103bd0000080fb004300de00614060000080fb00cd
:103be0004300dd0000c070000080fb00100798005b
:103bf0000902370090c5bf000080fb004400de00d2
:103c0000614060008040780098c5bf000080fb00e4
:103c10004400de00614060000080fb0000004000c6
:103c200080c07000a0c5bf000080fb004400de0023
:103c3000614060000080fb004200dd0080c0700039
:103c4000a8c5bf000080fb004400de0061406000aa
:103c50000080fb004300dd0000c070000080fb001e
:103c600010079800ec01370090c5bf000080fb00f2
:103c70004500de00614060008040780098c5bf00cc
:103c80000080fb004500de00614060000080fb001a
:103c90000000400080c07000a0c5bf000080fb0095
:103ca0004500de00614060000080fb004200dd0056
:103cb00080c07000a8c5bf000080fb004500de008a
:103cc000614060000080fb004300dd0000c0700028
:103cd0000080fb0010079800cf01370090c5bf009f
:103ce0000080fb004600de006140600080407800fc
:103cf00098c5bf000080fb004600de006140600008
:103d00000080fb000000400080c07000a0c5bf0024
:103d10000080fb004600de00614060000080fb0088
:103d20004200dd0080c07000a8c5bf000080fb001d
:103d30004600de00614060000080fb004300dd00c3
:103d400000c070000080fb0010079800b20137002f
:103d500090c5bf000080fb004700de008040780077
:103d600098c5bf000080fb004700de000080fb001c
:103d70000000400080c07000a0c5bf000080fb00b4
:103d80004700de000080fb004200dd0080c07000c4
:103d9000a8c5bf000080fb004700de000080fb00dc
:103da0004300dd0000c070000080fb001007980099
:103db0009901370093c5bf000080fb004200de0080
:103dc00061406000804078009bc5bf000080fb0020
:103dd0004200de00614060000080fb000000400007
:103de00080c07000a3c5bf000080fb004200de0061
:103df000614060000080fb004200dd0080c0700078
:103e0000abc5bf000080fb004200de0061406000e7
:103e10000080fb004300dd0000c070000080fb005c
:103e2000100798007c01370093c5bf000080fb009d
:103e30000000d10061406000804078009bc5bf0059
:103e40000080fb000000d100614060000080fb00aa
:103e50000000400080c07000a3c5bf000080fb00d0
:103e60000000d100614060000080fb004200dd00e6
:103e700080c07000abc5bf000080fb000000d10017
:103e8000614060000080fb004300dd0000c0700066
:103e90000080fb00100798005f01370093c5bf004a
:103ea00061406000804078009bc5bf0061406000b9
:103eb0000080fb000000400080c07000a3c5bf0070
:103ec000614060000080fb004200dd0080c07000a7
:103ed000abc5bf00614060000080fb004300dd0017
:103ee00000c070000080fb00100798004a013700f6
:103ef00092c5bf000080fb004700de0080407800d4
:103f00009ac5bf000080fb004700de000080fb0078
:103f10000000400080c07000a2c5bf000080fb0010
:103f20004700de000080fb004200dd0080c0700022
:103f3000aac5bf000080fb004700de000080fb0038
:103f40004300dd0000c070000080fb0010079800f7
:103f50003101370092c5bf000080fb004600de0043
:103f600061406000804078009ac5bf000080fb007f
:103f70004600de00614060000080fb000000400061
:103f800080c07000a2c5bf000080fb004600de00bc
:103f9000614060000080fb004200dd0080c07000d6
:103fa000aac5bf000080fb004600de006140600043
:103fb0000080fb004300dd0000c070000080fb00bb
:103fc000100798001401370092c5bf000080fb0065
:103fd0004500de0061406000804078009ac5bf0067
:103fe0000080fb004500de00614060000080fb00b7
:103ff0000000400080c07000a2c5bf000080fb0030
:104000004500de00614060000080fb004200dd00f2
:1040100080c07000aac5bf000080fb004500de0024
:10402000614060000080fb004300dd0000c07000c4
:104030000080fb0010079800f700370092c5bf0012
:104040000080fb004400de0061406000804078009a
:104050009ac5bf000080fb004400de0061406000a4
:104060000080fb000000400080c07000a2c5bf00bf
:104070000080fb004400de00614060000080fb0027
:104080004200dd0080c07000aac5bf000080fb00b8
:104090004400de00614060000080fb004300dd0062
:1040a00000c070000080fb0010079800da003700a5
:1040b00092c5bf0061406000804078009ac5bf0093
:1040c000614060000080fb000000400080c0700084
:1040d000a2c5bf00614060000080fb004200dd001f
:1040e00080c07000aac5bf00614060000080fb0076
:1040f0004300dd0000c070000080fb001007980046
:10410000c500370091c5bf000080fb004700de00fe
:104110008040780099c5bf000080fb004700de00aa
:104120000080fb000000400080c07000a1c5bf00ff
:104130000080fb004700de000080fb004200dd0045
:1041400080c07000a9c5bf000080fb004700de00f2
:104150000080fb004300dd0000c070000080fb0019
:1041600010079800ac00370091c5bf000080fb002d
:104170004600de00614060008040780099c5bf00c5
:104180000080fb004600de00614060000080fb0014
:104190000000400080c07000a1c5bf000080fb008f
:1041a0004600de00614060000080fb004200dd0050
:1041b00080c07000a9c5bf000080fb004600de0083
:1041c000614060000080fb004300dd0000c0700023
:1041d0000080fb00100798008f00370091c5bf00da
:1041e0000080fb004500de006140600080407800f8
:1041f00099c5bf000080fb004500de006140600003
:104200000080fb000000400080c07000a1c5bf001e
:104210000080fb004500de00614060000080fb0084
:104220004200dd0080c07000a9c5bf000080fb0017
:104230004500de00614060000080fb004300dd00bf
:1042400000c070000080fb0010079800720037006b
:1042500093c5bf000080fb004400de0061406000a9
:10426000804078009bc5bf000080fb004400de005a
:10427000614060000080fb000000400080c07000d2
:10428000a3c5bf000080fb004400de006140600069
:104290000080fb004200dd0080c07000abc5bf00a5
:1042a0000080fb004400de00614060000080fb00f5
:1042b0004300dd0000c070000080fb001007980084
:1042c0005500370095c5bf000080fb004700de00a9
:1042d000804078009dc5bf000080fb004700de00e5
:1042e0000080fb000000400080c07000a5c5bf003a
:1042f0000080fb004700de000080fb004200dd0084
:1043000080c07000adc5bf000080fb004700de002c
:104310000080fb004300dd0000c070000080fb0057
:10432000100798003c00370091c5bf000080fb00db
:104330004400de00614060008040780099c5bf0005
:104340000080fb004400de00614060000080fb0054
:104350000000400080c07000a1c5bf000080fb00cd
:104360004400de00614060000080fb004200dd0090
:1043700080c07000a9c5bf000080fb004400de00c3
:10438000614060000080fb004300dd0000c0700061
:104390000080fb00100798001f00370092c5bf0087
:1043a0000080fb004200de00614060008040780039
:1043b0009ac5bf000080fb004200de006140600043
:1043c0000080fb000000400080c07000a2c5bf005c
:1043d0000080fb004200de00614060000080fb00c6
:1043e0004200dd0080c07000aac5bf000080fb0055
:1043f0004200de00614060000080fb004300dd0001
:1044000000c070000080fb00100798000200370019
:1044100011002000110798001e0090000080fa0093
:10442000000006003600f800809fbe00829fbe009c
:10443000849fbe00869fbe003200f800002020004e
:10444000900188000200fa008460a9000040eb009f
:10445000004f7800070037001e80fb0080004000fe
:10446000a0be200000804000100078000000010085
:104470001e4fe8001e04e000f7ff3200e0638000fa
:104480000000e800e06388000080fa003200f900d4
:104490004f03be004f02be004f01be004f00be00e2
:1044a0003600f900004006003600f800809fbe008c
:1044b000829fbe00849fbe00869fbe003200f8002f
:1044c00000202000900188000200fa0084e0a9008a
:1044d0000040eb00004f7800070037001e80fb0013
:1044e00080004000c0be2000008040001000780026
:1044f000000001001e4fe8001e04e000f7ff32003c
:10450000e06380000000e800e06388000080fa00bb
:104510003200f9004f03be004f02be004f01be0043
:104520004f00be003600f900004006003600f800db
:10453000809fbe00829fbe00849fbe00869fbe00fb
:104540003200f80000202000900188000200fa00ec
:104550008500a9000040eb00004f780007003700fd
:104560001e80fb0080004000e0be20000080400074
:1045700010007800000001001e4fe8001e04e0005b
:10458000f7ff3200e06380000000e800e06388008d
:104590000080fa003200f9004f03be004f02be0057
:1045a0004f01be004f00be003600f900004006007b
:1045b0003600f800809fbe00829fbe00849fbe0030
:1045c000869fbe003200f800002020009001880085
:1045d0000200fa008760a9000040eb00004f78005d
:1045e000070037001e80fb008000400000bf200055
:1045f0000080400010007800000001001e4fe8001d
:104600001e04e000f7ff3200e06380000000e800d5
:10461000e06388000080fa003200f9004f03be001a
:104620004f02be004f01be004f00be003600f90031
:10463000004006003600f800809fbe00829fbe004a
:10464000849fbe00869fbe003200f800002020003c
:10465000900188000200fa008780a9000040eb006a
:10466000004f7800070037001e80fb0080004000ec
:1046700020bf2000008040001000780000000100f2
:104680001e4fe8001e04e000f7ff3200e0638000e8
:104690000000e800e06388000080fa003200f900c2
:1046a0004f03be004f02be004f01be004f00be00d0
:1046b0003600f900004006001000fa0020079800bc
:1046c00031079800420798003e009000500798007c
:1046d000de009000e38f5000200032005e0090006a
:1046e000e30f500007003e00de009000e18f500015
:1046f000140032005e009000e10f500014003e00f4
:104700000d003700de009000e58f500019003200e8
:104710005e009000e50f500013003900de009000ad
:10472000e68f5000160032005e009000e70f500048
:104730001600320017003700e0032000000f780059
:104740001400370020262000000f780011003700e9
:10475000404c2000000f78000e003700a0be200063
:10476000000f78000b003700407d2100000f78001b
:104770000800370040722700000f7800050037005e
:1047800000882300000f78000200370000c92d00c8
:10479000000f7800ae009000610798006e00900056
:1047a000e30f500084003200ee009000e38f5000d1
:1047b00007003e006e009000e10f50000b00320039
:1047c000ee009000e28f50005b003200d90037000d
:1047d0006e009000e40f500097003200ee00900051
:1047e000e58f5000b4003200d20037000000eb002b
:1047f00010079800120037001e0090008000400053
:10480000a0be2000008040009000780000c2200080
:10481000808f500007003a001e009000800040008a
:10482000a0be200000804000ce009000010878006b
:10483000060037001e0090000000e80010079800f6
:104840001e0090000000e000ebff32003e009000f0
:1048500070079800fe009000e38f500020003200a7
:104860007e009000e30f500007003e00fe00900025
:10487000e18f5000140032007e009000e10f5000e4
:1048800014003e000d003700fe009000e58f500040
:10489000190032007e009000e50f5000130039002f
:1048a000fe009000e68f5000160032007e0090005f
:1048b000e70f5000160032001700370020002000dc
:1048c000000f78001400370090022000000f7800dd
:1048d0001100370020052000000f78000e0037007f
:1048e000d00c2000000f78000b0037006013200070
:1048f000000f78000800370000802000000f7800cb
:1049000005003700c0bf2000000f7800020037000c
:1049100080fe2000000f7800100020001604020026
:10492000000000009e00780020012200e204020046
:10493000000000007f0037000000eb001007980027
:10494000120037001e00900080004000c0be200012
:10495000008040009000780000c22000808f50004e
:1049600007003a001e00900080004000c0be2000fa
:1049700000804000ce00900001087800060037005b
:104980001e0090000000e800100798001e00900034
:104990000000e000ebff32001000200040040200a5
:1049a000000000009e00780000022200ea040200dd
:1049b000000000005f0037000000eb0010079800c7
:1049c000120037001e00900080004000e0be200072
:1049d000008040009000780000c22000808f5000ce
:1049e00007003a001e00900080004000e0be20005a
:1049f00000804000ce0090000108780006003700db
:104a00001e0090000000e800100798001e009000b3
:104a10000000e000ebff3200100020006a040200fa
:104a2000000000009e00780000022200f204020054
:104a3000000000003f0037000000eb001007980066
:104a4000120037001e0090008000400000bf2000d0
:104a5000008040009000780000c22000808f50004d
:104a600007003a001e0090008000400000bf2000b8
:104a700000804000ce00900001087800060037005a
:104a80001e0090000000e800100798001e00900033
:104a90000000e000ebff3200100020009004020054
:104aa000000000009e00780000022200f8040200ce
:104ab000000000001f0037000000eb001007980006
:104ac000120037001e0090008000400020bf200030
:104ad000008040009000780000c22000808f5000cd
:104ae00007003a001e0090008000400020bf200018
:104af00000804000ce0090000108780006003700da
:104b00001e0090000000e800100798001e009000b2
:104b10000000e000ebff320010002000ba040200a9
:104b2000000000009e007800000222000005020044
:104b3000000000000080fa00000006000400fa00f7
:104b4000000f78001e007800100798001e009000eb
:104b5000e30f5000170032001e009000e30f5000da
:104b600007003e001e009000e10f50000b003200d5
:104b70001e009000e20f50000b00320015003700bd
:104b80001e009000e40f50000d0032001e00900047
:104b9000e50f50000d0032000e00370005e1a800bf
:104ba0009460a8000b00370011e1a80094e0a80071
:104bb0000800370013e1a8009500a80005003700a1
:104bc0001fe1a8009760a8000200370021e1a800bb
:104bd0009780a8000080fa00000006000400fa0098
:104be000000f78001e007800100798001e0090004b
:104bf000e30f5000190032001e009000e30f500038
:104c000007003e001e009000e10f50000b00320034
:104c10001e009000e20f50000c0032001a00370016
:104c20001e009000e40f5000100032001e009000a3
:104c3000e50f50001100320013003700ee030200b0
:104c4000000000009460a9000f003700f603020086
:104c50000000000094e0a9000b003700fe030200f2
:104c6000000000009500a9000700370006040200bc
:104c7000000000009760a900030037000e04020046
:104c8000000000009780a9000080fa0000000600e4
:104c90001c00fa00200f9800615798000000eb00fc
:104ca000100f98000000eb00000f98000000eb00d0
:104cb000700798000000eb00600798000000eb0010
:104cc000500798000000eb00400798000000eb0040
:104cd000300798000000eb00200798000000eb0070
:104ce000100798000000eb00000f78001c03020082
:104cf00000000000de04a9002e0890006101b80049
:104d0000420f9800530f98009001200001002000ee
:104d10004e099000de099000800f5100818f5900ec
:104d2000cb003e004e089000de08900000600100bd
:104d3000190037001f003700250037002b0037000f
:104d400031003700370037003d003700430037009f
:104d5000490037004f003700550037005b0037002f
:104d600061003700670037006d00370073003700bf
:104d7000b7003700b6003700b5003700b400370081
:104d8000b3003700b2003700b1003700b000370081
:104d9000af003700700037000000eb00100f9800e4
:104da0001000200010079800e204a800c802a80024
:104db0006c00370010002000100f98002000200029
:104dc00010079800e224a800c822a8006500370058
:104dd00020002000100f98004000200010079800cd
:104de000e244a800c842a8005e003700300020005e
:104df000100f98008000200010079800e264a800bf
:104e0000c862a8005700370040002000100f98002b
:104e10000001200010079800e284a800c882a800c2
:104e20005000370050002000100f980000022000b2
:104e300010079800e2a4a800c8a2a8004900370003
:104e400060002000100f9800000420001007980058
:104e5000e2c4a800c8c2a8004200370070002000c9
:104e6000100f98000008200010079800e2e4a80046
:104e7000c8e2a8003b00370080002000100f980017
:104e80000010200010079800e304a800c902a80041
:104e90003400370090002000100f98000020200000
:104ea00010079800e324a800c922a8002d003700ad
:104eb000a0002000100f980000402000100798006c
:104ec000e344a800c942a80026003700b000200033
:104ed000100f98000080200010079800e364a800dd
:104ee000c962a8001f003700c0002000100f980002
:104ef0000000210010079800e384a800c982a800e0
:104f000018003700d0002000100f98000000220089
:104f100010079800e3a4a800c9a2a8001100370058
:104f2000e0002000100f98000000240010079800f7
:104f3000e3c4a800c9c2a8000a003700f00020009e
:104f4000100f98000000280010079800e3e4a80064
:104f5000c9e2a80003003700c0012000100f98002c
:104f6000de04a8001e0890003203020000000000ca
:104f700040072000000f98006e5090006c406000c9
:104f8000e44f500003003a00a0c0b300faebb700b2
:104f9000110037006e5090006c406000e84f5000e8
:104fa00007003a008e08900000402000008070004a
:104fb000000f9800c0c0b300faebb700060037003e
:104fc0006e5090006c4060000004e00002003a0067
:104fd00080c0b300faebb7000000eb007007980048
:104fe000e0f12100600798000000eb004007980006
:104ff0002e089000f80f5000040036004e0090007c
:105000000100210001007000400798009e00780018
:10501000811f78009e0390002e039000be02900036
:105020004e029000de0190006e019000fe009000a4
:105030000e0890009e080200000000008f87e90023
:105040002e089000f80f5000010036005583a8008c
:105050000080fa00000006001400fa00000f98001b
:10506000215798000040eb00504f9800fccbbf0048
:105070000040e800fcebb7007accbf000004e00081
:1050800059003a000040eb00404f980010c0b300b8
:105090007aecb7000040eb00404f98004e0037001c
:1050a0000000eb00500798000040eb00fcebb7005d
:1050b0006e4890000020a0000030a100604f9800d2
:1050c000ee48900090012000f1fe07000000eb0088
:1050d00097000700a50007000040eb00504f980024
:1050e0000c003700a1000700400798004e00900018
:1050f0000000e0000a003200de0090004e00900048
:1051000000804000500798005e4890000040e80092
:10511000504f98005e489000e14f5000f1ff34007e
:105120005e489000e24f500003003a005e0090009d
:105130000000d100500798005e0090000002780047
:1051400005002000060020000700200000002c00c1
:10515000210120006011b800480a02000000000090
:1051600030079800be00900080d42000808f50004f
:105170000b003e00be009000306a2000808f50007f
:1051800007003600c15f80003e00900000804000b4
:10519000c05f8800c05f80000000d100c05f880051
:1051a000c15f800010cb2000808f500003003600cc
:1051b00040c6b300fdebb7000200370010c0b300db
:1051c000fdebb7000000eb00600007004e489000c8
:1051d0000040e800404f98004e489000fd4f5000be
:1051e000afff34004d003700c1bf20009140780070
:1051f000fdcbbf0080cf5000480035000000eb0021
:10520000200798000040eb00fcebb7007e489000c0
:105210000020a0000030a100704f9800fe489000d0
:10522000900120009afe07000000eb0040000700fc
:105230004e0007000040eb00504f98000c00370074
:105240004a000700100798001e0090000000e000d0
:105250000a003200ae0090001e0090000080400066
:10526000200798005e4890000040e800504f9800ea
:105270005e489000e14f5000f1ff34005e4890001e
:10528000e24f500003003a002e0090000000d100d1
:10529000200798002e0090000002780005002000f2
:1052a000060020000700200000002c002101200043
:1052b0006011b800480a020000000000000f7800ea
:1052c00080d420009e0f100009003e00306a2000ac
:1052d0009e0f100006003600c05f80001e004000d8
:1052e000c05f8800c05f80000000d100c05f880000
:1052f000c15f800010cb2000808f5000030036007b
:1053000040c6b300fdebb7000200370010c0b30089
:10531000fdebb7000000eb000c000700ae50900062
:105320000e0890005afe07000080fa0000000600f8
:105330000200fa00000f780010c0b300fbebb700ca
:1053400041e3a8000080fa00000006000200fa0015
:10535000000f78000040eb00fbebb7001c030200dd
:10536000000000000080fa00000006000400fa00bf
:105370000000eb00000f7800240302000000000092
:105380001000370040c3bf00624060000004e0002e
:10539000050032000040eb0028030200000000007e
:1053a000f06388000a0037001e0fe800f0e12400d7
:1053b0009e0f1000030036000000eb00100798005d
:1053c0000f003700fbcbbf00e14f5000edff320074
:1053d000facbbf00e84f500003003a00f0638000b2
:1053e0004200de00f0638800e0638000f16380002b
:1053f00001004000e0638800f0638000100798001f
:105400001e0090000080fa00000006000800fa006c
:105410000000eb0010079800d4ff07000040eb00ed
:10542000404798000d003700d0ff0700000f7800bc
:105430001e00e00003003a000000eb003007980077
:105440000e0037001e0090001e004000100798005c
:105450004e4090000040e800404798004e409000c9
:10546000e14f5000f0ff34001e0090000000d1001a
:10547000100798001e009000300798003e00900032
:105480000080fa00000006000000fa004a0702004f
:1054900000000000700802000000000027e6a800dd
:1054a0000000eb000080fa00000006000400fa0093
:1054b000000f780080c820006e0702000000000086
:1054c00080c82000904078001e00780001487800d5
:1054d00080c82000b04090001e0078001140980065
:1054e00080c82000a04090001e0078002140980055
:1054f00080c82000c04090001e0078003140980015
:1055000080c82000f04090001e00780041409800c4
:1055100080c82000e04090001e00780051409800b4
:1055200080c82000d04090001e00780061409800a4
:1055300062c7bf00624060000004e0000300320068
:105540000000eb0010079800020037001000200058
:10555000100798001e0090000080fa00000006006e
:105560000400fa00100798001e0090009040780098
:1055700080c82000014878001e00900090409000f4
:1055800080c82000314098001e009000a04090008c
:1055900080c82000214098001e009000b04090007c
:1055a00080c82000414098001e009000c04090003c
:1055b00080c82000714098001e009000d0409000ec
:1055c00080c82000614098001e009000e0409000dc
:1055d00080c82000514098001100200080c82000a1
:1055e000a607020000000000000f78006227a90053
:1055f0001e0078000080fa00000006000200fa0099
:10560000000f780001003700000000001e0fe900c5
:105610000080eb009e0f1000fbff3a000080fa00b4
:10562000000006000400fa00100798000a00370086
:105630000000eb00000f7800010037001e0fe800ab
:10564000f03120009e0f1000fcff34001e0090007f
:105650000000e900100798001e0090000000e00024
:10566000f3ff3a000080fa00000006000000fa0094
:10567000000000000080fa00000006000000fa00b0
:10568000e06380000080fa00000006000200fa00db
:10569000004f7800e882a900ee82a90010c0b30094
:1056a0009e4f100002003a00ec82a8000100370073
:1056b000ec82a9000080fa00000006000200fa0057
:1056c000004f7800e8a2a900eea2a90010c0b30024
:1056d0009e4f100002003a00eca2a8000100370023
:1056e000eca2a9000080fa00000006000200fa0007
:1056f000004f7800e842a900ee42a90010c0b300b4
:105700009e4f100002003a00ec42a8000100370052
:10571000ec42a9000080fa00000006000000fa0038
:10572000e082a900e884a900e682a900e482a8003a
:105730000080fa00000006000000fa00e082a900e4
:10574000e884a900e682a900e482a9000080fa00aa
:10575000000006000000fa007c15020000000000b6
:105760000080fa00000006000000fa008415020024
:10577000000000000080fa00000006000200fa00ad
:10578000004f7800114798009e4090001e4078001e
:10579000c0150200000000000080fa0000000600b2
:1057a0000200fa00004f78001e4078004c1d0200f5
:1057b000000000000080fb000080fa0000000600ee
:1057c0000000fa00f2140200000000000080fa005d
:1057d000000006000000fa00f3c2bf006140600054
:1057e0000080fb000080fa00000006000000fa00c4
:1057f000f2c2bf000080fb004700de000080fb001b
:105800000080fa00000006000400fa00004f780053
:1058100011079800f102a800ed04a900f702a90001
:10582000216820009140780000ccb30000c06000e7
:105830003041b30082e6b700b001200072030200dd
:10584000000000001e009000e05e88000080fa006a
:10585000000006000400fa00004f780011079800cd
:10586000f0e2a800ece4a900f6e2a900316820000b
:105870009140780000ccb30000c06000a041b300ac
:1058800083e6b700b0012000b00302000000000072
:105890001e009000f05e88000080fa000000060004
:1058a0000400fa00004f780011079800c902a80010
:1058b000e304a900cf02a9001168200091407800fc
:1058c00000ccb30000c060000034a00081e6b70047
:1058d000b001200036030200000000001e0090000e
:1058e000d05e88000080fa00000006000200fa0086
:1058f000cbc2bf00614060000004e0000300320042
:1059000010002000000f7800020037000000eb00bc
:10591000000f78001e0078000080fa0000000600ea
:105920000000fa00c922a900e324a900cf22a9009f
:105930000080fa00000006000000fa00cd22a80056
:105940000080fa00000006000000fa00cd22a90045
:105950000080fa00000006000000fa00c8e2a9007a
:10596000e2e4a900cee2a9000080fa0000000600ef
:105970000000fa00cce2a8000080fa000000060057
:105980000000fa00cce2a9000080fa000000060046
:105990000000fa00cd42a8000080fa0000000600d6
:1059a0000000fa00cd42a9000080fa0000000600c5
:1059b0000000fa00c942a900e344a900cf42a900af
:1059c0000080fa00000006000000fa00c942a800aa
:1059d000e344a900cf42a9000080fa0000000600bd
:1059e0000200fa00cbc2bf00644060000004e00087
:1059f0000300320010002000000f78000200370082
:105a00000000eb00000f78001e0078000080fa0014
:105a1000000006000000fa00c8c2a800e2c4a90005
:105a2000cec2a9000080fa00000006000200fa00c1
:105a3000cac2bf000044b2000004e000030032000c
:105a400010002000000f7800020037000000eb007b
:105a5000000f78001e0078000080fa0000000600a9
:105a60000000fa00c962a900e364a900cf62a9009e
